{
  "contractName": "Certificados",
  "abi": [
    {
      "inputs": [],
      "payable": false,
      "stateMutability": "nonpayable",
      "type": "constructor"
    },
    {
      "constant": true,
      "inputs": [
        {
          "internalType": "uint256",
          "name": "",
          "type": "uint256"
        }
      ],
      "name": "certificados",
      "outputs": [
        {
          "internalType": "uint256",
          "name": "id",
          "type": "uint256"
        },
        {
          "internalType": "string",
          "name": "did",
          "type": "string"
        },
        {
          "internalType": "uint256",
          "name": "fEmision",
          "type": "uint256"
        },
        {
          "internalType": "uint256",
          "name": "fCaducidad",
          "type": "uint256"
        },
        {
          "internalType": "string",
          "name": "univName",
          "type": "string"
        }
      ],
      "payable": false,
      "stateMutability": "view",
      "type": "function"
    },
    {
      "constant": true,
      "inputs": [],
      "name": "contadorCert",
      "outputs": [
        {
          "internalType": "uint256",
          "name": "",
          "type": "uint256"
        }
      ],
      "payable": false,
      "stateMutability": "view",
      "type": "function"
    },
    {
      "constant": false,
      "inputs": [
        {
          "internalType": "string",
          "name": "_did",
          "type": "string"
        },
        {
          "internalType": "uint8[64]",
          "name": "_firma",
          "type": "uint8[64]"
        },
        {
          "internalType": "string",
          "name": "_univName",
          "type": "string"
        }
      ],
      "name": "addCert",
      "outputs": [],
      "payable": false,
      "stateMutability": "nonpayable",
      "type": "function"
    },
    {
      "constant": true,
      "inputs": [
        {
          "internalType": "uint256",
          "name": "_id",
          "type": "uint256"
        }
      ],
      "name": "getFirma",
      "outputs": [
        {
          "internalType": "uint8[64]",
          "name": "",
          "type": "uint8[64]"
        }
      ],
      "payable": false,
      "stateMutability": "view",
      "type": "function"
    }
  ],
  "bytecode": "0x60806040523480156200001157600080fd5b50620002fc6040518060600160405280603c815260200162000da8603c9139604051806108000160405280602560ff16815260200160a660ff168152602001600b60ff168152602001607660ff16815260200160e260ff168152602001601060ff16815260200160ba60ff16815260200160c260ff16815260200160cf60ff16815260200160b760ff168152602001603a60ff16815260200160cf60ff168152602001603a60ff168152602001607960ff168152602001605d60ff16815260200160cf60ff168152602001601060ff16815260200160b760ff168152602001602b60ff168152602001607660ff168152602001602560ff16815260200160c260ff16815260200160e260ff168152602001602560ff168152602001600b60ff168152602001607a60ff168152602001607b60ff168152602001607b60ff16815260200160c260ff168152602001607b60ff16815260200160b760ff168152602001600b60ff168152602001605d60ff16815260200160a660ff168152602001602b60ff168152602001605d60ff16815260200160b760ff16815260200160b760ff168152602001603a60ff168152602001607960ff16815260200160cf60ff168152602001605d60ff16815260200160c260ff168152602001605d60ff168152602001605d60ff168152602001602b60ff168152602001607b60ff16815260200160c260ff16815260200160a660ff168152602001603a60ff168152602001607a60ff168152602001602b60ff16815260200160e260ff16815260200160ba60ff168152602001607960ff168152602001607b60ff168152602001602560ff168152602001602560ff168152602001603a60ff168152602001602560ff168152602001607960ff16815260200160e260ff168152602001602560ff168152602001601f60ff168152506040518060400160405280600381526020017f55494200000000000000000000000000000000000000000000000000000000008152506200030260201b60201c565b6200056a565b600042905060006305a39a80820190506001600081548092919060010191905055506040518060c0016040528060015481526020018681526020018381526020018281526020018481526020018581525060008060015481526020019081526020016000206000820151816000015560208201518160010190805190602001906200038f929190620003e7565b5060408201518160020155606082015181600301556080820151816004019080519060200190620003c2929190620003e7565b5060a082015181600501906040620003dc9291906200046e565b509050505050505050565b828054600181600116156101000203166002900490600052602060002090601f016020900481019282601f106200042a57805160ff19168380011785556200045b565b828001600101855582156200045b579182015b828111156200045a5782518255916020019190600101906200043d565b5b5090506200046a91906200050f565b5090565b826040601f01602090048101928215620004fc5791602002820160005b83821115620004cb57835183826101000a81548160ff021916908360ff16021790555092602001926001016020816000010492830192600103026200048b565b8015620004fa5782816101000a81549060ff0219169055600101602081600001049283019260010302620004cb565b505b5090506200050b919062000537565b5090565b6200053491905b808211156200053057600081600090555060010162000516565b5090565b90565b6200056791905b808211156200056357600081816101000a81549060ff0219169055506001016200053e565b5090565b90565b61082e806200057a6000396000f3fe608060405234801561001057600080fd5b506004361061004c5760003560e01c806328c1f9d514610051578063348a8a5a146101e65780638e59bb4814610250578063dd73ca0314610378575b600080fd5b6101e4600480360361084081101561006857600080fd5b810190808035906020019064010000000081111561008557600080fd5b82018360208201111561009757600080fd5b803590602001918460018302840111640100000000831117156100b957600080fd5b91908080601f016020809104026020016040519081016040528093929190818152602001838380828437600081840152601f19601f8201169050808301925050505050505091929192908061080001906040806020026040519081016040528092919082604060200280828437600081840152601f19601f82011690508083019250505050505091929192908035906020019064010000000081111561015e57600080fd5b82018360208201111561017057600080fd5b8035906020019184600183028401116401000000008311171561019257600080fd5b91908080601f016020809104026020016040519081016040528093929190818152602001838380828437600081840152601f19601f820116905080830192505050505050509192919290505050610396565b005b610212600480360360208110156101fc57600080fd5b8101908080359060200190929190505050610475565b6040518082604060200280838360005b8381101561023d578082015181840152602081019050610222565b5050505090500191505060405180910390f35b61027c6004803603602081101561026657600080fd5b81019080803590602001909291905050506104fb565b604051808681526020018060200185815260200184815260200180602001838103835287818151815260200191508051906020019080838360005b838110156102d25780820151818401526020810190506102b7565b50505050905090810190601f1680156102ff5780820380516001836020036101000a031916815260200191505b50838103825284818151815260200191508051906020019080838360005b8381101561033857808201518184015260208101905061031d565b50505050905090810190601f1680156103655780820380516001836020036101000a031916815260200191505b5097505050505050505060405180910390f35b610380610661565b6040518082815260200191505060405180910390f35b600042905060006305a39a80820190506001600081548092919060010191905055506040518060c001604052806001548152602001868152602001838152602001828152602001848152602001858152506000806001548152602001908152602001600020600082015181600001556020820151816001019080519060200190610421929190610667565b5060408201518160020155606082015181600301556080820151816004019080519060200190610452929190610667565b5060a08201518160050190604061046a9291906106e7565b509050505050505050565b61047d610781565b6000808381526020019081526020016000206005016040806020026040519081016040528092919082604080156104ef576020028201916000905b82829054906101000a900460ff1660ff16815260200190600101906020826000010492830192600103820291508084116104b85790505b50505050509050919050565b6000602052806000526040600020600091509050806000015490806001018054600181600116156101000203166002900480601f0160208091040260200160405190810160405280929190818152602001828054600181600116156101000203166002900480156105ad5780601f10610582576101008083540402835291602001916105ad565b820191906000526020600020905b81548152906001019060200180831161059057829003601f168201915b505050505090806002015490806003015490806004018054600181600116156101000203166002900480601f0160208091040260200160405190810160405280929190818152602001828054600181600116156101000203166002900480156106575780601f1061062c57610100808354040283529160200191610657565b820191906000526020600020905b81548152906001019060200180831161063a57829003601f168201915b5050505050905085565b60015481565b828054600181600116156101000203166002900490600052602060002090601f016020900481019282601f106106a857805160ff19168380011785556106d6565b828001600101855582156106d6579182015b828111156106d55782518255916020019190600101906106ba565b5b5090506106e391906107a4565b5090565b826040601f016020900481019282156107705791602002820160005b8382111561074157835183826101000a81548160ff021916908360ff1602179055509260200192600101602081600001049283019260010302610703565b801561076e5782816101000a81549060ff0219169055600101602081600001049283019260010302610741565b505b50905061077d91906107c9565b5090565b604051806108000160405280604090602082028038833980820191505090505090565b6107c691905b808211156107c25760008160009055506001016107aa565b5090565b90565b6107f691905b808211156107f257600081816101000a81549060ff0219169055506001016107cf565b5090565b9056fea265627a7a72315820e22e0097c4932d97170bb4c703e7e7b8d086a3c66f9b9e42762421de2c0444c964736f6c634300051000326469643a74656c3a332c32353323516d554a74424a33716d6a68397350514b6250455a32484d655a34365858444e586a73655379416f64777a727933",
  "source": "// SPDX-License-Identifier: GPL-3.0\r\n\r\npragma solidity 0.5.16;\r\n\r\ncontract Certificados {\r\n\r\n    struct Certificado {\r\n        uint id; // identificador del certificado en el contrato\r\n        string did; // DID del certificado\r\n        uint fEmision; // Fecha de emision del certificado\r\n        uint fCaducidad; // Fecha de caducidad del certificado\r\n        string univName; // Universidad que emite el certificado\r\n        uint8[64] firma; // Firma de la universidad, obtenida a partir del cifrado del hash devuelto por IPFS\r\n    }\r\n\r\n    // Read/write certificados\r\n    mapping(uint => Certificado) public certificados;\r\n\r\n    //Contador de certificados\r\n     uint public contadorCert;\r\n\r\n    // Funcion para añadir certificados al contrato\r\n    function addCert(string memory _did, uint8[64] memory _firma, string memory _univName) public {\r\n\r\n        uint tActual = block.timestamp;\r\n        uint fCaducidad = tActual + 3 * 365 days; // Caducidad de 3 años para cualquier certificado14\r\n        contadorCert ++;\r\n        certificados[contadorCert] = Certificado(contadorCert, _did, tActual, fCaducidad, _univName, _firma);\r\n\r\n    }\r\n\r\n    // Funcion para obtener la firma del certificado indicado en la variable de entrada\r\n    function getFirma(uint _id) public view returns(uint8[64] memory){\r\n\r\n        return certificados[_id].firma;\r\n\r\n    }\r\n\r\n\r\n    //Constructor que se llama cuando se despliega el contrato\r\n    constructor() public {\r\n\r\n        // Se añade un certificado de pruebas emnitido por la UIB con el DID indicado. La clave privada de la UIB es: 147,253 que usa para firmar el hash IPFS \r\n        addCert(\"did:tel:3,253#QmUJtBJ3qmjh9sPQKbPEZ2HMeZ46XXDNXjseSyAodwzry3\", [37, 166, 11, 118, 226, 16, 186, 194, 207, 183, 58, 207, 58, 121, 93, 207, 16, 183, 43, 118, 37, 194, 226, 37, 11, 122, 123, 123, 194, 123, 183, 11, 93, 166, 43, 93, 183, 183, 58, 121, 207, 93, 194, 93, 93, 43, 123, 194, 166, 58, 122, 43, 226, 186, 121, 123, 37, 37, 58, 37, 121, 226, 37, 31], \"UIB\");\r\n    }\r\n}",
  "sourcePath": "C:\\Users\\Usuario\\Desktop\\DApp-SCM\\contracts\\Certificados.sol",
  "compiler": {
    "name": "solc",
    "version": "0.5.16+commit.9c3226ce.Emscripten.clang"
  },
  "schemaVersion": "3.4.8",
  "updatedAt": "2022-09-04T23:59:31.516Z",
  "networkType": "ethereum",
  "devdoc": {
    "methods": {}
  },
  "userdoc": {
    "methods": {}
  }
}