{
  "contractName": "Universidades",
  "abi": [
    {
      "inputs": [],
      "payable": false,
      "stateMutability": "nonpayable",
      "type": "constructor"
    },
    {
      "constant": true,
      "inputs": [],
      "name": "contadorUniv",
      "outputs": [
        {
          "internalType": "uint256",
          "name": "",
          "type": "uint256"
        }
      ],
      "payable": false,
      "stateMutability": "view",
      "type": "function"
    },
    {
      "constant": true,
      "inputs": [
        {
          "internalType": "uint256",
          "name": "",
          "type": "uint256"
        }
      ],
      "name": "universidades",
      "outputs": [
        {
          "internalType": "uint256",
          "name": "id",
          "type": "uint256"
        },
        {
          "internalType": "string",
          "name": "name",
          "type": "string"
        },
        {
          "internalType": "address payable",
          "name": "dir",
          "type": "address"
        },
        {
          "internalType": "string",
          "name": "estado",
          "type": "string"
        }
      ],
      "payable": false,
      "stateMutability": "view",
      "type": "function"
    },
    {
      "constant": false,
      "inputs": [
        {
          "internalType": "uint256",
          "name": "_id",
          "type": "uint256"
        }
      ],
      "name": "darAlta",
      "outputs": [],
      "payable": false,
      "stateMutability": "nonpayable",
      "type": "function"
    },
    {
      "constant": false,
      "inputs": [
        {
          "internalType": "uint256",
          "name": "_id",
          "type": "uint256"
        }
      ],
      "name": "darBaja",
      "outputs": [],
      "payable": false,
      "stateMutability": "nonpayable",
      "type": "function"
    }
  ],
  "bytecode": "0x608060405273a4e08db122c1edca740058bf2b4b3e1a5386e3016000806101000a81548173ffffffffffffffffffffffffffffffffffffffff021916908373ffffffffffffffffffffffffffffffffffffffff16021790555034801561006457600080fd5b506100be6040518060400160405280600381526020017f5549420000000000000000000000000000000000000000000000000000000000815250736b02a40fb83a7eff1faf47faae41f7168f457ced61017560201b60201c565b6101176040518060400160405280600481526020017f554e45440000000000000000000000000000000000000000000000000000000081525073480e0a82818ed7b9258971222d544d36d97bba9761017560201b60201c565b6101706040518060400160405280600381526020017f554f4300000000000000000000000000000000000000000000000000000000008152507378f8a958d259d27341952825a40506a90867a29961017560201b60201c565b61039a565b6000809054906101000a900473ffffffffffffffffffffffffffffffffffffffff1673ffffffffffffffffffffffffffffffffffffffff163373ffffffffffffffffffffffffffffffffffffffff16146101ce57600080fd5b600260008154809291906001019190505550604051806080016040528060025481526020018381526020018273ffffffffffffffffffffffffffffffffffffffff1681526020016040518060400160405280600481526020017f414c5441000000000000000000000000000000000000000000000000000000008152508152506001600060025481526020019081526020016000206000820151816000015560208201518160010190805190602001906102899291906102f5565b5060408201518160020160006101000a81548173ffffffffffffffffffffffffffffffffffffffff021916908373ffffffffffffffffffffffffffffffffffffffff16021790555060608201518160030190805190602001906102ed9291906102f5565b509050505050565b828054600181600116156101000203166002900490600052602060002090601f016020900481019282601f1061033657805160ff1916838001178555610364565b82800160010185558215610364579182015b82811115610363578251825591602001919060010190610348565b5b5090506103719190610375565b5090565b61039791905b8082111561039357600081600090555060010161037b565b5090565b90565b6105f0806103a96000396000f3fe608060405234801561001057600080fd5b506004361061004c5760003560e01c80631ab5846d14610051578063571eca5a1461019e578063d670bf65146101cc578063f7cf2ffc146101fa575b600080fd5b61007d6004803603602081101561006757600080fd5b8101908080359060200190929190505050610218565b60405180858152602001806020018473ffffffffffffffffffffffffffffffffffffffff1673ffffffffffffffffffffffffffffffffffffffff16815260200180602001838103835286818151815260200191508051906020019080838360005b838110156100f95780820151818401526020810190506100de565b50505050905090810190601f1680156101265780820380516001836020036101000a031916815260200191505b50838103825284818151815260200191508051906020019080838360005b8381101561015f578082015181840152602081019050610144565b50505050905090810190601f16801561018c5780820380516001836020036101000a031916815260200191505b50965050505050505060405180910390f35b6101ca600480360360208110156101b457600080fd5b8101908080359060200190929190505050610398565b005b6101f8600480360360208110156101e257600080fd5b8101908080359060200190929190505050610454565b005b610202610510565b6040518082815260200191505060405180910390f35b6001602052806000526040600020600091509050806000015490806001018054600181600116156101000203166002900480601f0160208091040260200160405190810160405280929190818152602001828054600181600116156101000203166002900480156102ca5780601f1061029f576101008083540402835291602001916102ca565b820191906000526020600020905b8154815290600101906020018083116102ad57829003601f168201915b5050505050908060020160009054906101000a900473ffffffffffffffffffffffffffffffffffffffff1690806003018054600181600116156101000203166002900480601f01602080910402602001604051908101604052809291908181526020018280546001816001161561010002031660029004801561038e5780601f106103635761010080835404028352916020019161038e565b820191906000526020600020905b81548152906001019060200180831161037157829003601f168201915b5050505050905084565b6000809054906101000a900473ffffffffffffffffffffffffffffffffffffffff1673ffffffffffffffffffffffffffffffffffffffff163373ffffffffffffffffffffffffffffffffffffffff16146103f157600080fd5b6040518060400160405280600481526020017f414c544100000000000000000000000000000000000000000000000000000000815250600160008381526020019081526020016000206003019080519060200190610450929190610516565b5050565b6000809054906101000a900473ffffffffffffffffffffffffffffffffffffffff1673ffffffffffffffffffffffffffffffffffffffff163373ffffffffffffffffffffffffffffffffffffffff16146104ad57600080fd5b6040518060400160405280600481526020017f42414a410000000000000000000000000000000000000000000000000000000081525060016000838152602001908152602001600020600301908051906020019061050c929190610516565b5050565b60025481565b828054600181600116156101000203166002900490600052602060002090601f016020900481019282601f1061055757805160ff1916838001178555610585565b82800160010185558215610585579182015b82811115610584578251825591602001919060010190610569565b5b5090506105929190610596565b5090565b6105b891905b808211156105b457600081600090555060010161059c565b5090565b9056fea265627a7a72315820bc8b2e2ebe75dc66aacab2592b44c047a494971845846da4747a436868dd3e6364736f6c63430005100032",
  "source": "// SPDX-License-Identifier: GPL-3.0\r\n\r\npragma solidity 0.5.16;\r\n\r\ncontract Universidades {\r\n\r\n    address payable private dirMin = 0xA4E08Db122c1edCA740058bf2b4b3e1A5386e301; // direccion de la cartera del Ministerio\r\n\r\n    struct Universidad {\r\n        uint id; // identificador de la universidad en el contrato\r\n        string name; // nombre de la universidad\r\n        address payable dir; // direccion de la cartera de la universidad\r\n        string estado; // estado de la universidad (ALTA o BAJA)\r\n    }\r\n\r\n    // Read/write universidades\r\n    mapping(uint => Universidad) public universidades;\r\n\r\n    // Contador de universidades\r\n     uint public contadorUniv;\r\n\r\n    // Funcion para añadir universidades al contrato. Solo disponible para el Ministerio\r\n    function addUniv(string memory _name, address payable _dir) private {\r\n\r\n        require(msg.sender == dirMin);\r\n        contadorUniv ++;\r\n        universidades[contadorUniv] = Universidad(contadorUniv, _name, _dir, \"ALTA\");\r\n\r\n    }\r\n\r\n    // Constructor que se llama cuando se despliega el contrato\r\n    constructor() public {\r\n\r\n        addUniv(\"UIB\", 0x6B02a40Fb83a7Eff1FAf47Faae41f7168F457CEd);\r\n        addUniv(\"UNED\", 0x480e0A82818eD7b9258971222D544d36d97bba97);\r\n        addUniv(\"UOC\", 0x78f8a958d259d27341952825A40506a90867a299);\r\n\r\n    }\r\n\r\n    // Funcion para cambiar el estado de una universidad a \"ALTA\". Solo disponible para el Ministerio\r\n    function darAlta(uint _id) public {\r\n\r\n        require(msg.sender == dirMin);\r\n\r\n        universidades[_id].estado = \"ALTA\";\r\n    }\r\n\r\n    // Funcion para cambiar el estado de una universidad a \"BAJA\". Solo disponible para el Ministerio\r\n    function darBaja(uint _id) public {\r\n\r\n        require(msg.sender == dirMin);\r\n\r\n        universidades[_id].estado = \"BAJA\";\r\n\r\n    }\r\n}",
  "sourcePath": "C:\\Users\\Usuario\\Desktop\\DApp-SCM\\contracts\\Universidades.sol",
  "compiler": {
    "name": "solc",
    "version": "0.5.16+commit.9c3226ce.Emscripten.clang"
  },
  "schemaVersion": "3.4.8",
  "updatedAt": "2022-09-04T23:59:31.513Z",
  "networkType": "ethereum",
  "devdoc": {
    "methods": {}
  },
  "userdoc": {
    "methods": {}
  }
}